:020000020000FC
:1000000010C01895189518958AC0189518951895C8
:100010001895189518951895189518951895189578
:100020001895B1E0BEBFAFE5ADBFA0E0A0B9A0E0BC
:10003000A0936200A0936300A0936400A093650066
:10004000A2E0A093610034E016D1BA9ADF98A0E054
:10005000A6BFA2E4A0BFA1E0A3BF2CD1099AA1E052
:10006000A7B9A5E8A6B92AEF70D12AEF6ED1AAD018
:10007000A0E0A0BFA3BFC298DF98FDD024E665D161
:10008000FAD02AE562D1F7D020E55FD1F4D026E49A
:100090005CD1F1D02CE359D1EED022E356D1EBD094
:1000A00028E253D1E8D02EE150D1E5D02EE14DD158
:1000B000E2D028E24AD1DFD022E347D1DCD02CE3E2
:1000C00044D1D9D026E441D1D6D020E53ED1D3D0F9
:1000D0002AE53BD1D0D024E638D161E0A8E1A1BD2A
:1000E000A1E6A1BD789460936000DC98D498DD9877
:1000F000D598B99AC198B89AC098D79ADF98D198EC
:10010000BA9AC298089A0A9A0B9AA0E0A7B9A0E0F6
:10011000A6B9AFE0A0B9A8E3A5BF8895E6CFB1E046
:10012000BEBFAFE5ADBFA895F894A0E0A0B9A0E030
:10013000A4BF7FD0609160006A9511F560E3BA9A20
:10014000DF98A0E0A6BFA2E4A0BFA1E0A3BF099AE8
:10015000A1E0A7B9A5E8A6B92AEFF7D02AEFF5D014
:100160003ED06092620070926300A0E0A0BFA3BF87
:10017000C298DF98A8E1A1BDA1E6A1BD48D004C006
:10018000A8E1A1BDA1E6A1BD60936000A895789407
:10019000DC98D498DD98D598B99AC198B89AC09847
:1001A000D79ADF98D198BA9AC298089A0A9A0B9A65
:1001B000A0E0A7B9A0E0A6B9AFE0A0B9A8E3A5BFA9
:1001C0008895E6CFA4E12AEFC0D02AEFBED007D0B1
:1001D0006092640070926500AA95A9F70895AF93A4
:1001E000BF938FD0369A3699FECF44B155B1369928
:1001F000FECF44B155B1AFEFB3E0A41BB50BA09354
:100200007700B093870065D0BF91AF910895A0911A
:100210006200B0916300C0916400D0916500AC179A
:10022000BD0730F43DD061E0A8E1A1BDA4E4A1BDCB
:100230000895089501E10A95A9F0B99AC19AB89A6A
:10024000C098440C551C18F4DD98D59802C0DD9870
:10025000D59ADC98D49A68D0DC98D498DD98D59853
:1002600063D0E9CFDC98D498DD98D598B99AC19835
:10027000B89AC0980895AF93D79ADF98A0E0A0BF2E
:10028000A3BFA1E2A0BFA1E0A3BFA0E3ACBF28E24F
:100290005CD0A0E0A0BFA3BFC298DF98AF91089543
:1002A0003A9539F438E2A7E0E6DF28E24ED0AA9585
:1002B000D9F70895D0E0C8E6002410E109921A9514
:1002C000E9F7D0E0C8E7002410E109921A95E9F7B0
:1002D0000895D0E0C8E6F0E0E8E72224332410E1F6
:1002E00009901190200C311C1A95D1F7369427945F
:1002F000369427943694279436942794622C732C42
:100300000895F0E0E9E6D0E0C8E61FE00190099228
:100310001A95E1F7F0E0E9E7D0E0C8E71FE00190C7
:1003200009921A95E1F708952F93000026E1000045
:100330002A95E9F72F9108952F93A89526ECA89573
:1003400000002A95E1F72F910895F6DF2A95E9F745
:0203500008950E
:00000001FF
